{
  "contractName": "DiamondHands",
  "abi": [
    {
      "inputs": [],
      "stateMutability": "nonpayable",
      "type": "constructor"
    },
    {
      "inputs": [
        {
          "internalType": "address",
          "name": "",
          "type": "address"
        },
        {
          "internalType": "uint256",
          "name": "",
          "type": "uint256"
        }
      ],
      "name": "accountIds",
      "outputs": [
        {
          "internalType": "int256",
          "name": "",
          "type": "int256"
        }
      ],
      "stateMutability": "view",
      "type": "function",
      "constant": true
    },
    {
      "inputs": [],
      "name": "devCommission",
      "outputs": [
        {
          "internalType": "uint256",
          "name": "",
          "type": "uint256"
        }
      ],
      "stateMutability": "view",
      "type": "function",
      "constant": true
    },
    {
      "inputs": [],
      "name": "developerFee",
      "outputs": [
        {
          "internalType": "uint256",
          "name": "",
          "type": "uint256"
        }
      ],
      "stateMutability": "view",
      "type": "function",
      "constant": true
    },
    {
      "inputs": [],
      "name": "id",
      "outputs": [
        {
          "internalType": "int256",
          "name": "",
          "type": "int256"
        }
      ],
      "stateMutability": "view",
      "type": "function",
      "constant": true
    },
    {
      "inputs": [],
      "name": "newContractAddress",
      "outputs": [
        {
          "internalType": "address",
          "name": "",
          "type": "address"
        }
      ],
      "stateMutability": "view",
      "type": "function",
      "constant": true
    },
    {
      "inputs": [],
      "name": "pauseContract",
      "outputs": [
        {
          "internalType": "bool",
          "name": "",
          "type": "bool"
        }
      ],
      "stateMutability": "view",
      "type": "function",
      "constant": true
    },
    {
      "inputs": [
        {
          "internalType": "int256",
          "name": "",
          "type": "int256"
        }
      ],
      "name": "vaults",
      "outputs": [
        {
          "internalType": "address",
          "name": "_address",
          "type": "address"
        },
        {
          "internalType": "uint256",
          "name": "_expiry",
          "type": "uint256"
        },
        {
          "internalType": "uint256",
          "name": "_lockedEth",
          "type": "uint256"
        },
        {
          "internalType": "bool",
          "name": "_initialized",
          "type": "bool"
        }
      ],
      "stateMutability": "view",
      "type": "function",
      "constant": true
    },
    {
      "inputs": [
        {
          "internalType": "uint256",
          "name": "_expiry",
          "type": "uint256"
        }
      ],
      "name": "startAccount",
      "outputs": [],
      "stateMutability": "payable",
      "type": "function",
      "payable": true
    },
    {
      "inputs": [
        {
          "internalType": "int256",
          "name": "_id",
          "type": "int256"
        }
      ],
      "name": "addToAccount",
      "outputs": [],
      "stateMutability": "payable",
      "type": "function",
      "payable": true
    },
    {
      "inputs": [
        {
          "internalType": "int256",
          "name": "_id",
          "type": "int256"
        }
      ],
      "name": "withdrawETH",
      "outputs": [],
      "stateMutability": "nonpayable",
      "type": "function"
    },
    {
      "inputs": [
        {
          "internalType": "address",
          "name": "_owner",
          "type": "address"
        }
      ],
      "name": "setNewOwner",
      "outputs": [],
      "stateMutability": "nonpayable",
      "type": "function"
    },
    {
      "inputs": [
        {
          "internalType": "bool",
          "name": "_state",
          "type": "bool"
        }
      ],
      "name": "setContractState",
      "outputs": [],
      "stateMutability": "nonpayable",
      "type": "function"
    },
    {
      "inputs": [
        {
          "internalType": "address",
          "name": "_address",
          "type": "address"
        }
      ],
      "name": "setNewContractAddress",
      "outputs": [],
      "stateMutability": "nonpayable",
      "type": "function"
    },
    {
      "inputs": [
        {
          "internalType": "uint256",
          "name": "_devFee",
          "type": "uint256"
        }
      ],
      "name": "setDevFee",
      "outputs": [],
      "stateMutability": "nonpayable",
      "type": "function"
    },
    {
      "inputs": [],
      "name": "withdrawDevCommission",
      "outputs": [],
      "stateMutability": "nonpayable",
      "type": "function"
    }
  ],
  "bytecode": "0x6080604052600060045534801561001557600080fd5b50336000806101000a81548173ffffffffffffffffffffffffffffffffffffffff021916908373ffffffffffffffffffffffffffffffffffffffff160217905550610f51806100656000396000f3fe6080604052600436106100e85760003560e01c8063699333aa1161008a578063b858b1ab11610059578063b858b1ab14610350578063bb5131441461037e578063f3022de8146103ed578063f5a1f5b41461043e576100e8565b8063699333aa146102905780636af04a57146102a7578063aefd8dc7146102e8578063af640d0f14610325576100e8565b806331c2ad53116100c657806331c2ad5314610181578063439766ce146101ac57806355dddc88146101d957806362a4008a14610255576100e8565b80630a32e91e146100ed5780631c75b6b21461011857806324154e7514610153575b600080fd5b3480156100f957600080fd5b5061010261048f565b6040518082815260200191505060405180910390f35b34801561012457600080fd5b506101516004803603602081101561013b57600080fd5b8101908080359060200190929190505050610495565b005b61017f6004803603602081101561016957600080fd5b8101908080359060200190929190505050610517565b005b34801561018d57600080fd5b50610196610708565b6040518082815260200191505060405180910390f35b3480156101b857600080fd5b506101c161070e565b60405180821515815260200191505060405180910390f35b3480156101e557600080fd5b50610212600480360360208110156101fc57600080fd5b8101908080359060200190929190505050610721565b604051808573ffffffffffffffffffffffffffffffffffffffff168152602001848152602001838152602001821515815260200194505050505060405180910390f35b34801561026157600080fd5b5061028e6004803603602081101561027857600080fd5b810190808035906020019092919050505061077e565b005b34801561029c57600080fd5b506102a56109d3565b005b3480156102b357600080fd5b506102bc610b11565b604051808273ffffffffffffffffffffffffffffffffffffffff16815260200191505060405180910390f35b3480156102f457600080fd5b506103236004803603602081101561030b57600080fd5b81019080803515159060200190929190505050610b37565b005b34801561033157600080fd5b5061033a610bac565b6040518082815260200191505060405180910390f35b61037c6004803603602081101561036657600080fd5b8101908080359060200190929190505050610bb2565b005b34801561038a57600080fd5b506103d7600480360360408110156103a157600080fd5b81019080803573ffffffffffffffffffffffffffffffffffffffff16906020019092919080359060200190929190505050610db6565b6040518082815260200191505060405180910390f35b3480156103f957600080fd5b5061043c6004803603602081101561041057600080fd5b81019080803573ffffffffffffffffffffffffffffffffffffffff169060200190929190505050610de4565b005b34801561044a57600080fd5b5061048d6004803603602081101561046157600080fd5b81019080803573ffffffffffffffffffffffffffffffffffffffff169060200190929190505050610e80565b005b60025481565b60008054906101000a900473ffffffffffffffffffffffffffffffffffffffff1673ffffffffffffffffffffffffffffffffffffffff163373ffffffffffffffffffffffffffffffffffffffff16146104ed57600080fd5b60001515600360009054906101000a900460ff1615151461050d57600080fd5b8060018190555050565b60001515600360009054906101000a900460ff1615151461053757600080fd5b6000341161054457600080fd5b600115156006600083815260200190815260200160002060030160009054906101000a900460ff161515146105e1576040517f08c379a00000000000000000000000000000000000000000000000000000000081526004018080602001828103825260168152602001807f4163636f756e7420446f6573204e6f742045786973740000000000000000000081525060200191505060405180910390fd5b600034600660008481526020019081526020016000206002015401905060405180608001604052803373ffffffffffffffffffffffffffffffffffffffff16815260200160066000858152602001908152602001600020600101548152602001828152602001600115158152506006600084815260200190815260200160002060008201518160000160006101000a81548173ffffffffffffffffffffffffffffffffffffffff021916908373ffffffffffffffffffffffffffffffffffffffff160217905550602082015181600101556040820151816002015560608201518160030160006101000a81548160ff02191690831515021790555090505060006103e86001543402816106f057fe5b04905080600260008282540192505081905550505050565b60015481565b600360009054906101000a900460ff1681565b60066020528060005260406000206000915090508060000160009054906101000a900473ffffffffffffffffffffffffffffffffffffffff16908060010154908060020154908060030160009054906101000a900460ff16905084565b600115156006600083815260200190815260200160002060030160009054906101000a900460ff1615151461081b576040517f08c379a00000000000000000000000000000000000000000000000000000000081526004018080602001828103825260168152602001807f4163636f756e7420446f6573204e6f742045786973740000000000000000000081525060200191505060405180910390fd5b600660008281526020019081526020016000206001015442116108a6576040517f08c379a00000000000000000000000000000000000000000000000000000000081526004018080602001828103825260168152602001807f457870697279204e6f742052656163686564205965740000000000000000000081525060200191505060405180910390fd5b60006006600083815260200190815260200160002060020154905060003390508073ffffffffffffffffffffffffffffffffffffffff166108fc839081150290604051600060405180830381858888f19350505050156109ce5760405180608001604052803373ffffffffffffffffffffffffffffffffffffffff1681526020016000815260200160008152602001600115158152506006600085815260200190815260200160002060008201518160000160006101000a81548173ffffffffffffffffffffffffffffffffffffffff021916908373ffffffffffffffffffffffffffffffffffffffff160217905550602082015181600101556040820151816002015560608201518160030160006101000a81548160ff0219169083151502179055509050505b505050565b60008054906101000a900473ffffffffffffffffffffffffffffffffffffffff1673ffffffffffffffffffffffffffffffffffffffff163373ffffffffffffffffffffffffffffffffffffffff1614610a2b57600080fd5b60008060009054906101000a900473ffffffffffffffffffffffffffffffffffffffff169050600060025411610ac9576040517f08c379a00000000000000000000000000000000000000000000000000000000081526004018080602001828103825260168152602001807f44657620436f6d6d697373696f6e206973207a65726f0000000000000000000081525060200191505060405180910390fd5b8073ffffffffffffffffffffffffffffffffffffffff166108fc6002549081150290604051600060405180830381858888f1935050505015610b0e5760006002819055505b50565b600360019054906101000a900473ffffffffffffffffffffffffffffffffffffffff1681565b60008054906101000a900473ffffffffffffffffffffffffffffffffffffffff1673ffffffffffffffffffffffffffffffffffffffff163373ffffffffffffffffffffffffffffffffffffffff1614610b8f57600080fd5b80600360006101000a81548160ff02191690831515021790555050565b60045481565b60001515600360009054906101000a900460ff16151514610bd257600080fd5b60003411610c48576040517f08c379a000000000000000000000000000000000000000000000000000000000815260040180806020018281038252600b8152602001807f4e6f204554482073656e7400000000000000000000000000000000000000000081525060200191505060405180910390fd5b600160046000828254019250508190555060405180608001604052803373ffffffffffffffffffffffffffffffffffffffff1681526020018281526020013481526020016001151581525060066000600454815260200190815260200160002060008201518160000160006101000a81548173ffffffffffffffffffffffffffffffffffffffff021916908373ffffffffffffffffffffffffffffffffffffffff160217905550602082015181600101556040820151816002015560608201518160030160006101000a81548160ff021916908315150217905550905050600560003373ffffffffffffffffffffffffffffffffffffffff1673ffffffffffffffffffffffffffffffffffffffff168152602001908152602001600020600454908060018154018082558091505060019003906000526020600020016000909190919091505560006103e8600154340281610d9f57fe5b049050806002600082825401925050819055505050565b60056020528160005260406000208181548110610dcf57fe5b90600052602060002001600091509150505481565b60008054906101000a900473ffffffffffffffffffffffffffffffffffffffff1673ffffffffffffffffffffffffffffffffffffffff163373ffffffffffffffffffffffffffffffffffffffff1614610e3c57600080fd5b80600360016101000a81548173ffffffffffffffffffffffffffffffffffffffff021916908373ffffffffffffffffffffffffffffffffffffffff16021790555050565b60008054906101000a900473ffffffffffffffffffffffffffffffffffffffff1673ffffffffffffffffffffffffffffffffffffffff163373ffffffffffffffffffffffffffffffffffffffff1614610ed857600080fd5b806000806101000a81548173ffffffffffffffffffffffffffffffffffffffff021916908373ffffffffffffffffffffffffffffffffffffffff1602179055505056fea2646970667358221220266bbd9cd7229035200f4e68b976f19678212e81d05b3c0be1cd3a9fec8c513f64736f6c634300060c0033",
  "immutableReferences": {},
  "source": "pragma solidity >=0.6.0;\r\n\r\ncontract DiamondHands {\r\n\r\n    address owner;\r\n    uint public developerFee;\r\n    uint public devCommission;\r\n    bool public pauseContract;\r\n    address public newContractAddress;\r\n    int public id =0;\r\n    \r\n\r\n    constructor() public {\r\n        owner = msg.sender;\r\n    }\r\n\r\n    modifier onlyOwner(){\r\n        require(msg.sender == owner);\r\n        _;\r\n    }\r\n\r\n    modifier contractPaused(){\r\n        require(pauseContract == true);\r\n        _;\r\n    }\r\n\r\n    modifier contractNotPaused(){\r\n        require(pauseContract == false);\r\n        _;\r\n    }\r\n\r\n    \r\n    struct vault{\r\n        address _address;\r\n        uint _expiry;\r\n        uint _lockedEth;\r\n        bool _initialized;\r\n    }\r\n\r\n    mapping(address=> int[]) public accountIds;\r\n    mapping(int=>vault) public vaults;\r\n    \r\n    \r\n    function startAccount (uint _expiry) public payable contractNotPaused {\r\n        require(msg.value>0, \"No ETH sent\");\r\n        id+=1;\r\n        vaults[id] = vault(msg.sender, _expiry, msg.value, true);      \r\n        accountIds[msg.sender].push(id);\r\n        \r\n        uint commission = (msg.value*developerFee)/1000;\r\n        devCommission+=commission;\r\n        \r\n\r\n    }\r\n    function addToAccount (int _id) public payable contractNotPaused {\r\n        require(msg.value>0);\r\n        require(vaults[_id]._initialized==true, \"Account Does Not Exist\");\r\n        \r\n        uint netAmount = vaults[_id]._lockedEth+msg.value;\r\n        vaults[_id] = vault(msg.sender, vaults[_id]._expiry, netAmount, true);\r\n        uint commission = (msg.value*developerFee)/1000;\r\n        devCommission+=commission;\r\n        \r\n\r\n    }\r\n    function withdrawETH(int _id) public {\r\n        require(vaults[_id]._initialized==true, \"Account Does Not Exist\");\r\n        require(block.timestamp > vaults[_id]._expiry, \"Expiry Not Reached Yet\");\r\n        uint withdrawAmount = vaults[_id]._lockedEth;\r\n        address payable receiver = payable(msg.sender);\r\n        if(receiver.send(withdrawAmount)){\r\n            vaults[_id] = vault(msg.sender, 0, 0, true);\r\n        }\r\n        //require(payable(msg.sender).transfer(withdrawAmount),\"Withdraw Transaction Failed\");\r\n        \r\n\r\n\r\n    }\r\n\r\n    function setNewOwner(address _owner) public onlyOwner {\r\n\r\n        owner = _owner;\r\n\r\n    }\r\n\r\n    function setContractState(bool _state) public onlyOwner {\r\n\r\n        pauseContract = _state;\r\n\r\n    }\r\n\r\n    function setNewContractAddress(address _address) public onlyOwner {\r\n\r\n        newContractAddress = _address;\r\n\r\n    }\r\n    \r\n\r\n    function setDevFee(uint _devFee) public onlyOwner contractNotPaused{\r\n\r\n        developerFee = _devFee;\r\n\r\n    }\r\n\r\n    function withdrawDevCommission() public onlyOwner{\r\n        address payable dev = payable(owner);\r\n        require(devCommission>0, \"Dev Commission is zero\");\r\n\r\n        if(dev.send(devCommission)){\r\n            devCommission =0;\r\n\r\n        }\r\n\r\n\r\n    }\r\n\r\n\r\n}",
  "sourcePath": "C:\\Users\\jayfo\\Desktop\\Web3\\diamondhands\\contracts\\DiamondHands.sol",
  "compiler": {
    "name": "solc",
    "version": "0.6.12+commit.27d51765.Emscripten.clang"
  },
  "schemaVersion": "3.4.4",
  "updatedAt": "2022-05-24T19:34:14.771Z",
  "networkType": "ethereum",
  "devdoc": {
    "kind": "dev",
    "methods": {},
    "version": 1
  },
  "userdoc": {
    "kind": "user",
    "methods": {},
    "version": 1
  }
}